{
  "_format": "hh-sol-artifact-1",
  "contractName": "LandRegistry",
  "sourceName": "contracts/LandRegistry.sol",
  "abi": [
    {
      "inputs": [],
      "stateMutability": "nonpayable",
      "type": "constructor"
    },
    {
      "anonymous": false,
      "inputs": [
        {
          "indexed": true,
          "internalType": "uint256",
          "name": "id",
          "type": "uint256"
        },
        {
          "indexed": false,
          "internalType": "string",
          "name": "ownerName",
          "type": "string"
        },
        {
          "indexed": true,
          "internalType": "address",
          "name": "ownerWallet",
          "type": "address"
        },
        {
          "indexed": false,
          "internalType": "string",
          "name": "location",
          "type": "string"
        },
        {
          "indexed": false,
          "internalType": "string",
          "name": "landType",
          "type": "string"
        },
        {
          "indexed": false,
          "internalType": "uint256",
          "name": "price",
          "type": "uint256"
        },
        {
          "indexed": false,
          "internalType": "uint256",
          "name": "timestamp",
          "type": "uint256"
        }
      ],
      "name": "LandAdded",
      "type": "event"
    },
    {
      "anonymous": false,
      "inputs": [
        {
          "indexed": true,
          "internalType": "uint256",
          "name": "id",
          "type": "uint256"
        },
        {
          "indexed": true,
          "internalType": "address",
          "name": "previousOwner",
          "type": "address"
        },
        {
          "indexed": true,
          "internalType": "address",
          "name": "newOwner",
          "type": "address"
        },
        {
          "indexed": false,
          "internalType": "string",
          "name": "newOwnerName",
          "type": "string"
        },
        {
          "indexed": false,
          "internalType": "uint256",
          "name": "timestamp",
          "type": "uint256"
        }
      ],
      "name": "OwnershipTransferred",
      "type": "event"
    },
    {
      "inputs": [
        {
          "internalType": "string",
          "name": "_ownerName",
          "type": "string"
        },
        {
          "internalType": "address",
          "name": "_ownerWallet",
          "type": "address"
        },
        {
          "internalType": "string",
          "name": "_location",
          "type": "string"
        },
        {
          "internalType": "string",
          "name": "_landType",
          "type": "string"
        },
        {
          "internalType": "uint256",
          "name": "_price",
          "type": "uint256"
        }
      ],
      "name": "addLand",
      "outputs": [],
      "stateMutability": "nonpayable",
      "type": "function"
    },
    {
      "inputs": [],
      "name": "admin",
      "outputs": [
        {
          "internalType": "address",
          "name": "",
          "type": "address"
        }
      ],
      "stateMutability": "view",
      "type": "function"
    },
    {
      "inputs": [
        {
          "internalType": "uint256",
          "name": "_start",
          "type": "uint256"
        },
        {
          "internalType": "uint256",
          "name": "_count",
          "type": "uint256"
        }
      ],
      "name": "getAllLands",
      "outputs": [
        {
          "components": [
            {
              "internalType": "uint256",
              "name": "id",
              "type": "uint256"
            },
            {
              "internalType": "string",
              "name": "ownerName",
              "type": "string"
            },
            {
              "internalType": "address",
              "name": "ownerWallet",
              "type": "address"
            },
            {
              "internalType": "string",
              "name": "location",
              "type": "string"
            },
            {
              "internalType": "string",
              "name": "landType",
              "type": "string"
            },
            {
              "internalType": "uint256",
              "name": "price",
              "type": "uint256"
            },
            {
              "internalType": "uint256",
              "name": "timestamp",
              "type": "uint256"
            },
            {
              "internalType": "bool",
              "name": "exists",
              "type": "bool"
            }
          ],
          "internalType": "struct LandRegistry.Land[]",
          "name": "",
          "type": "tuple[]"
        }
      ],
      "stateMutability": "view",
      "type": "function"
    },
    {
      "inputs": [
        {
          "internalType": "uint256",
          "name": "_id",
          "type": "uint256"
        }
      ],
      "name": "getLand",
      "outputs": [
        {
          "internalType": "uint256",
          "name": "id",
          "type": "uint256"
        },
        {
          "internalType": "string",
          "name": "ownerName",
          "type": "string"
        },
        {
          "internalType": "address",
          "name": "ownerWallet",
          "type": "address"
        },
        {
          "internalType": "string",
          "name": "location",
          "type": "string"
        },
        {
          "internalType": "string",
          "name": "landType",
          "type": "string"
        },
        {
          "internalType": "uint256",
          "name": "price",
          "type": "uint256"
        },
        {
          "internalType": "uint256",
          "name": "timestamp",
          "type": "uint256"
        }
      ],
      "stateMutability": "view",
      "type": "function"
    },
    {
      "inputs": [
        {
          "internalType": "address",
          "name": "_owner",
          "type": "address"
        }
      ],
      "name": "getLandsByOwner",
      "outputs": [
        {
          "internalType": "uint256[]",
          "name": "",
          "type": "uint256[]"
        }
      ],
      "stateMutability": "view",
      "type": "function"
    },
    {
      "inputs": [],
      "name": "landCount",
      "outputs": [
        {
          "internalType": "uint256",
          "name": "",
          "type": "uint256"
        }
      ],
      "stateMutability": "view",
      "type": "function"
    },
    {
      "inputs": [
        {
          "internalType": "uint256",
          "name": "",
          "type": "uint256"
        }
      ],
      "name": "lands",
      "outputs": [
        {
          "internalType": "uint256",
          "name": "id",
          "type": "uint256"
        },
        {
          "internalType": "string",
          "name": "ownerName",
          "type": "string"
        },
        {
          "internalType": "address",
          "name": "ownerWallet",
          "type": "address"
        },
        {
          "internalType": "string",
          "name": "location",
          "type": "string"
        },
        {
          "internalType": "string",
          "name": "landType",
          "type": "string"
        },
        {
          "internalType": "uint256",
          "name": "price",
          "type": "uint256"
        },
        {
          "internalType": "uint256",
          "name": "timestamp",
          "type": "uint256"
        },
        {
          "internalType": "bool",
          "name": "exists",
          "type": "bool"
        }
      ],
      "stateMutability": "view",
      "type": "function"
    },
    {
      "inputs": [
        {
          "internalType": "address",
          "name": "",
          "type": "address"
        },
        {
          "internalType": "uint256",
          "name": "",
          "type": "uint256"
        }
      ],
      "name": "ownerLands",
      "outputs": [
        {
          "internalType": "uint256",
          "name": "",
          "type": "uint256"
        }
      ],
      "stateMutability": "view",
      "type": "function"
    },
    {
      "inputs": [
        {
          "internalType": "uint256",
          "name": "_landId",
          "type": "uint256"
        },
        {
          "internalType": "address",
          "name": "_newOwner",
          "type": "address"
        },
        {
          "internalType": "string",
          "name": "_newOwnerName",
          "type": "string"
        }
      ],
      "name": "transferOwnership",
      "outputs": [],
      "stateMutability": "nonpayable",
      "type": "function"
    }
  ],
  "bytecode": "0x608060405234801561001057600080fd5b50336000806101000a81548173ffffffffffffffffffffffffffffffffffffffff021916908373ffffffffffffffffffffffffffffffffffffffff1602179055506000600181905550612240806100686000396000f3fe608060405234801561001057600080fd5b50600436106100935760003560e01c8063d7bce65811610066578063d7bce65814610130578063e069c4111461014e578063e261f1e51461017e578063f02dd53f146101b5578063f851a440146101eb57610093565b8063455b9d231461009857806371625641146100c8578063cc8c4c74146100e4578063d0dea6e214610100575b600080fd5b6100b260048036038101906100ad91906112d8565b610209565b6040516100bf91906113cd565b60405180910390f35b6100e260048036038101906100dd9190611561565b6102a0565b005b6100fe60048036038101906100f991906115d0565b6105ed565b005b61011a6004803603810190610115919061169f565b61088f565b60405161012791906116ee565b60405180910390f35b6101386108c0565b60405161014591906116ee565b60405180910390f35b61016860048036038101906101639190611709565b6108c6565b6040516101759190611972565b60405180910390f35b61019860048036038101906101939190611994565b610c4e565b6040516101ac989796959493929190611a29565b60405180910390f35b6101cf60048036038101906101ca9190611994565b610e5b565b6040516101e29796959493929190611abc565b60405180910390f35b6101f36110e1565b6040516102009190611b40565b60405180910390f35b6060600360008373ffffffffffffffffffffffffffffffffffffffff1673ffffffffffffffffffffffffffffffffffffffff16815260200190815260200160002080548060200260200160405190810160405280929190818152602001828054801561029457602002820191906000526020600020905b815481526020019060010190808311610280575b50505050509050919050565b60008054906101000a900473ffffffffffffffffffffffffffffffffffffffff1673ffffffffffffffffffffffffffffffffffffffff163373ffffffffffffffffffffffffffffffffffffffff161461032e576040517f08c379a000000000000000000000000000000000000000000000000000000000815260040161032590611bcd565b60405180910390fd5b826002600082815260200190815260200160002060070160009054906101000a900460ff16610392576040517f08c379a000000000000000000000000000000000000000000000000000000000815260040161038990611c5f565b60405180910390fd5b600060026000868152602001908152602001600020905060008160020160009054906101000a900473ffffffffffffffffffffffffffffffffffffffff169050600073ffffffffffffffffffffffffffffffffffffffff168573ffffffffffffffffffffffffffffffffffffffff1603610441576040517f08c379a000000000000000000000000000000000000000000000000000000000815260040161043890611ccb565b60405180910390fd5b8073ffffffffffffffffffffffffffffffffffffffff168573ffffffffffffffffffffffffffffffffffffffff16036104af576040517f08c379a00000000000000000000000000000000000000000000000000000000081526004016104a690611d37565b60405180910390fd5b6104b98187611105565b838260010190816104ca9190611f63565b50848260020160006101000a81548173ffffffffffffffffffffffffffffffffffffffff021916908373ffffffffffffffffffffffffffffffffffffffff160217905550428260060181905550600360008673ffffffffffffffffffffffffffffffffffffffff1673ffffffffffffffffffffffffffffffffffffffff1681526020019081526020016000208690806001815401808255809150506001900390600052602060002001600090919091909150558473ffffffffffffffffffffffffffffffffffffffff168173ffffffffffffffffffffffffffffffffffffffff16877feead4037783076f26217df2806da05d96c3517ae8ad6c31aeb1be5357593a37587426040516105dd929190612035565b60405180910390a4505050505050565b60008054906101000a900473ffffffffffffffffffffffffffffffffffffffff1673ffffffffffffffffffffffffffffffffffffffff163373ffffffffffffffffffffffffffffffffffffffff161461067b576040517f08c379a000000000000000000000000000000000000000000000000000000000815260040161067290611bcd565b60405180910390fd5b6001600081548092919061068e90612094565b9190505550600060015490506040518061010001604052808281526020018781526020018673ffffffffffffffffffffffffffffffffffffffff168152602001858152602001848152602001838152602001428152602001600115158152506002600083815260200190815260200160002060008201518160000155602082015181600101908161071f9190611f63565b5060408201518160020160006101000a81548173ffffffffffffffffffffffffffffffffffffffff021916908373ffffffffffffffffffffffffffffffffffffffff160217905550606082015181600301908161077c9190611f63565b5060808201518160040190816107929190611f63565b5060a0820151816005015560c0820151816006015560e08201518160070160006101000a81548160ff021916908315150217905550905050600360008673ffffffffffffffffffffffffffffffffffffffff1673ffffffffffffffffffffffffffffffffffffffff1681526020019081526020016000208190806001815401808255809150506001900390600052602060002001600090919091909150558473ffffffffffffffffffffffffffffffffffffffff16817f5fb6ffaca080da1e6a91dd5df8144014fcecca5eed55bb325d1659e07350744a888787874260405161087f9594939291906120dc565b60405180910390a3505050505050565b600360205281600052604060002081815481106108ab57600080fd5b90600052602060002001600091509150505481565b60015481565b6060600082846108d69190612144565b90506001548111156108e85760015490505b6000848210156108f9576000610906565b84826109059190612178565b5b905060008167ffffffffffffffff81111561092457610923611436565b5b60405190808252806020026020018201604052801561095d57816020015b61094a611209565b8152602001906001900390816109425790505b50905060005b82811015610c415760006001828961097b9190612144565b6109859190612144565b90506002600082815260200190815260200160002060070160009054906101000a900460ff1615610c33576002600082815260200190815260200160002060405180610100016040529081600082015481526020016001820180546109e990611d86565b80601f0160208091040260200160405190810160405280929190818152602001828054610a1590611d86565b8015610a625780601f10610a3757610100808354040283529160200191610a62565b820191906000526020600020905b815481529060010190602001808311610a4557829003601f168201915b505050505081526020016002820160009054906101000a900473ffffffffffffffffffffffffffffffffffffffff1673ffffffffffffffffffffffffffffffffffffffff1673ffffffffffffffffffffffffffffffffffffffff168152602001600382018054610ad190611d86565b80601f0160208091040260200160405190810160405280929190818152602001828054610afd90611d86565b8015610b4a5780601f10610b1f57610100808354040283529160200191610b4a565b820191906000526020600020905b815481529060010190602001808311610b2d57829003601f168201915b50505050508152602001600482018054610b6390611d86565b80601f0160208091040260200160405190810160405280929190818152602001828054610b8f90611d86565b8015610bdc5780601f10610bb157610100808354040283529160200191610bdc565b820191906000526020600020905b815481529060010190602001808311610bbf57829003601f168201915b5050505050815260200160058201548152602001600682015481526020016007820160009054906101000a900460ff161515151581525050838381518110610c2757610c266121ac565b5b60200260200101819052505b508080600101915050610963565b5080935050505092915050565b6002602052806000526040600020600091509050806000015490806001018054610c7790611d86565b80601f0160208091040260200160405190810160405280929190818152602001828054610ca390611d86565b8015610cf05780601f10610cc557610100808354040283529160200191610cf0565b820191906000526020600020905b815481529060010190602001808311610cd357829003601f168201915b5050505050908060020160009054906101000a900473ffffffffffffffffffffffffffffffffffffffff1690806003018054610d2b90611d86565b80601f0160208091040260200160405190810160405280929190818152602001828054610d5790611d86565b8015610da45780601f10610d7957610100808354040283529160200191610da4565b820191906000526020600020905b815481529060010190602001808311610d8757829003601f168201915b505050505090806004018054610db990611d86565b80601f0160208091040260200160405190810160405280929190818152602001828054610de590611d86565b8015610e325780601f10610e0757610100808354040283529160200191610e32565b820191906000526020600020905b815481529060010190602001808311610e1557829003601f168201915b5050505050908060050154908060060154908060070160009054906101000a900460ff16905088565b600060606000606080600080876002600082815260200190815260200160002060070160009054906101000a900460ff16610ecb576040517f08c379a0000000000000000000000000000000000000000000000000000000008152600401610ec290611c5f565b60405180910390fd5b6000600260008b815260200190815260200160002090508060000154816001018260020160009054906101000a900473ffffffffffffffffffffffffffffffffffffffff16836003018460040185600501548660060154858054610f2e90611d86565b80601f0160208091040260200160405190810160405280929190818152602001828054610f5a90611d86565b8015610fa75780601f10610f7c57610100808354040283529160200191610fa7565b820191906000526020600020905b815481529060010190602001808311610f8a57829003601f168201915b50505050509550838054610fba90611d86565b80601f0160208091040260200160405190810160405280929190818152602001828054610fe690611d86565b80156110335780601f1061100857610100808354040283529160200191611033565b820191906000526020600020905b81548152906001019060200180831161101657829003601f168201915b5050505050935082805461104690611d86565b80601f016020809104026020016040519081016040528092919081815260200182805461107290611d86565b80156110bf5780601f10611094576101008083540402835291602001916110bf565b820191906000526020600020905b8154815290600101906020018083116110a257829003601f168201915b5050505050925098509850985098509850985098505050919395979092949650565b60008054906101000a900473ffffffffffffffffffffffffffffffffffffffff1681565b6000600360008473ffffffffffffffffffffffffffffffffffffffff1673ffffffffffffffffffffffffffffffffffffffff168152602001908152602001600020905060005b8180549050811015611203578282828154811061116b5761116a6121ac565b5b9060005260206000200154036111f657816001838054905061118d9190612178565b8154811061119e5761119d6121ac565b5b90600052602060002001548282815481106111bc576111bb6121ac565b5b9060005260206000200181905550818054806111db576111da6121db565b5b60019003818190600052602060002001600090559055611203565b808060010191505061114b565b50505050565b6040518061010001604052806000815260200160608152602001600073ffffffffffffffffffffffffffffffffffffffff168152602001606081526020016060815260200160008152602001600081526020016000151581525090565b6000604051905090565b600080fd5b600080fd5b600073ffffffffffffffffffffffffffffffffffffffff82169050919050565b60006112a58261127a565b9050919050565b6112b58161129a565b81146112c057600080fd5b50565b6000813590506112d2816112ac565b92915050565b6000602082840312156112ee576112ed611270565b5b60006112fc848285016112c3565b91505092915050565b600081519050919050565b600082825260208201905092915050565b6000819050602082019050919050565b6000819050919050565b61134481611331565b82525050565b6000611356838361133b565b60208301905092915050565b6000602082019050919050565b600061137a82611305565b6113848185611310565b935061138f83611321565b8060005b838110156113c05781516113a7888261134a565b97506113b283611362565b925050600181019050611393565b5085935050505092915050565b600060208201905081810360008301526113e7818461136f565b905092915050565b6113f881611331565b811461140357600080fd5b50565b600081359050611415816113ef565b92915050565b600080fd5b600080fd5b6000601f19601f8301169050919050565b7f4e487b7100000000000000000000000000000000000000000000000000000000600052604160045260246000fd5b61146e82611425565b810181811067ffffffffffffffff8211171561148d5761148c611436565b5b80604052505050565b60006114a0611266565b90506114ac8282611465565b919050565b600067ffffffffffffffff8211156114cc576114cb611436565b5b6114d582611425565b9050602081019050919050565b82818337600083830152505050565b60006115046114ff846114b1565b611496565b9050828152602081018484840111156115205761151f611420565b5b61152b8482856114e2565b509392505050565b600082601f8301126115485761154761141b565b5b81356115588482602086016114f1565b91505092915050565b60008060006060848603121561157a57611579611270565b5b600061158886828701611406565b9350506020611599868287016112c3565b925050604084013567ffffffffffffffff8111156115ba576115b9611275565b5b6115c686828701611533565b9150509250925092565b600080600080600060a086880312156115ec576115eb611270565b5b600086013567ffffffffffffffff81111561160a57611609611275565b5b61161688828901611533565b9550506020611627888289016112c3565b945050604086013567ffffffffffffffff81111561164857611647611275565b5b61165488828901611533565b935050606086013567ffffffffffffffff81111561167557611674611275565b5b61168188828901611533565b925050608061169288828901611406565b9150509295509295909350565b600080604083850312156116b6576116b5611270565b5b60006116c4858286016112c3565b92505060206116d585828601611406565b9150509250929050565b6116e881611331565b82525050565b600060208201905061170360008301846116df565b92915050565b600080604083850312156117205761171f611270565b5b600061172e85828601611406565b925050602061173f85828601611406565b9150509250929050565b600081519050919050565b600082825260208201905092915050565b6000819050602082019050919050565b600081519050919050565b600082825260208201905092915050565b60005b838110156117af578082015181840152602081019050611794565b60008484015250505050565b60006117c682611775565b6117d08185611780565b93506117e0818560208601611791565b6117e981611425565b840191505092915050565b6117fd8161129a565b82525050565b60008115159050919050565b61181881611803565b82525050565b600061010083016000830151611837600086018261133b565b506020830151848203602086015261184f82826117bb565b915050604083015161186460408601826117f4565b506060830151848203606086015261187c82826117bb565b9150506080830151848203608086015261189682826117bb565b91505060a08301516118ab60a086018261133b565b5060c08301516118be60c086018261133b565b5060e08301516118d160e086018261180f565b508091505092915050565b60006118e8838361181e565b905092915050565b6000602082019050919050565b600061190882611749565b6119128185611754565b93508360208202850161192485611765565b8060005b85811015611960578484038952815161194185826118dc565b945061194c836118f0565b925060208a01995050600181019050611928565b50829750879550505050505092915050565b6000602082019050818103600083015261198c81846118fd565b905092915050565b6000602082840312156119aa576119a9611270565b5b60006119b884828501611406565b91505092915050565b600082825260208201905092915050565b60006119dd82611775565b6119e781856119c1565b93506119f7818560208601611791565b611a0081611425565b840191505092915050565b611a148161129a565b82525050565b611a2381611803565b82525050565b600061010082019050611a3f600083018b6116df565b8181036020830152611a51818a6119d2565b9050611a606040830189611a0b565b8181036060830152611a7281886119d2565b90508181036080830152611a8681876119d2565b9050611a9560a08301866116df565b611aa260c08301856116df565b611aaf60e0830184611a1a565b9998505050505050505050565b600060e082019050611ad1600083018a6116df565b8181036020830152611ae381896119d2565b9050611af26040830188611a0b565b8181036060830152611b0481876119d2565b90508181036080830152611b1881866119d2565b9050611b2760a08301856116df565b611b3460c08301846116df565b98975050505050505050565b6000602082019050611b556000830184611a0b565b92915050565b7f4c616e6452656769737472793a2063616c6c6572206973206e6f742061646d6960008201527f6e00000000000000000000000000000000000000000000000000000000000000602082015250565b6000611bb76021836119c1565b9150611bc282611b5b565b604082019050919050565b60006020820190508181036000830152611be681611baa565b9050919050565b7f4c616e6452656769737472793a206c616e6420646f6573206e6f74206578697360008201527f7400000000000000000000000000000000000000000000000000000000000000602082015250565b6000611c496021836119c1565b9150611c5482611bed565b604082019050919050565b60006020820190508181036000830152611c7881611c3c565b9050919050565b7f4c616e6452656769737472793a20696e76616c6964206e6577206f776e657200600082015250565b6000611cb5601f836119c1565b9150611cc082611c7f565b602082019050919050565b60006020820190508181036000830152611ce481611ca8565b9050919050565b7f4c616e6452656769737472793a2073616d65206f776e65720000000000000000600082015250565b6000611d216018836119c1565b9150611d2c82611ceb565b602082019050919050565b60006020820190508181036000830152611d5081611d14565b9050919050565b7f4e487b7100000000000000000000000000000000000000000000000000000000600052602260045260246000fd5b60006002820490506001821680611d9e57607f821691505b602082108103611db157611db0611d57565b5b50919050565b60008190508160005260206000209050919050565b60006020601f8301049050919050565b600082821b905092915050565b600060088302611e197fffffffffffffffffffffffffffffffffffffffffffffffffffffffffffffffff82611ddc565b611e238683611ddc565b95508019841693508086168417925050509392505050565b6000819050919050565b6000611e60611e5b611e5684611331565b611e3b565b611331565b9050919050565b6000819050919050565b611e7a83611e45565b611e8e611e8682611e67565b848454611de9565b825550505050565b600090565b611ea3611e96565b611eae818484611e71565b505050565b5b81811015611ed257611ec7600082611e9b565b600181019050611eb4565b5050565b601f821115611f1757611ee881611db7565b611ef184611dcc565b81016020851015611f00578190505b611f14611f0c85611dcc565b830182611eb3565b50505b505050565b600082821c905092915050565b6000611f3a60001984600802611f1c565b1980831691505092915050565b6000611f538383611f29565b9150826002028217905092915050565b611f6c82611775565b67ffffffffffffffff811115611f8557611f84611436565b5b611f8f8254611d86565b611f9a828285611ed6565b600060209050601f831160018114611fcd5760008415611fbb578287015190505b611fc58582611f47565b86555061202d565b601f198416611fdb86611db7565b60005b8281101561200357848901518255600182019150602085019450602081019050611fde565b86831015612020578489015161201c601f891682611f29565b8355505b6001600288020188555050505b505050505050565b6000604082019050818103600083015261204f81856119d2565b905061205e60208301846116df565b9392505050565b7f4e487b7100000000000000000000000000000000000000000000000000000000600052601160045260246000fd5b600061209f82611331565b91507fffffffffffffffffffffffffffffffffffffffffffffffffffffffffffffffff82036120d1576120d0612065565b5b600182019050919050565b600060a08201905081810360008301526120f681886119d2565b9050818103602083015261210a81876119d2565b9050818103604083015261211e81866119d2565b905061212d60608301856116df565b61213a60808301846116df565b9695505050505050565b600061214f82611331565b915061215a83611331565b925082820190508082111561217257612171612065565b5b92915050565b600061218382611331565b915061218e83611331565b92508282039050818111156121a6576121a5612065565b5b92915050565b7f4e487b7100000000000000000000000000000000000000000000000000000000600052603260045260246000fd5b7f4e487b7100000000000000000000000000000000000000000000000000000000600052603160045260246000fdfea2646970667358221220673e65e009251ed682d03612843d2ebf28ab22ba435b5593a24d53e86bc19f3464736f6c63430008180033",
  "linkReferences": {},
  "deployedLinkReferences": {}
}